:020000040800F2
:10000000B805002011B300080D0E00080F0E0008FF
:10001000130E0008170E00081B0E00080000000059
:100020000000000000000000000000001F0E00089B
:10003000210E000800000000230E0008250E000815
:100040002BB300082BB300082BB300082BB3000818
:100050002BB300082BB300082BB300082BB3000808
:100060002BB300082BB300082BB300082BB30008F8
:100070002BB300082BB300082BB300082BB30008E8
:100080002BB300082BB300082BB300082BB30008D8
:100090002BB300082BB300082BB300082BB30008C8
:1000A0002BB300082BB300082BB300082BB30008B8
:1000B000310E00086F0E00082BB300082BB30008A8
:1000C0002BB300082BB300082BB300082BB3000898
:1000D0002BB300082BB300082BB300082BB3000888
:1000E0002BB300082BB300082BB300082BB3000878
:1000F0002BB300082BB300082BB300082BB3000868
:100100002BB300082BB300082BB300082BB3000857
:100110002BB300082BB300082BB300082BB3000847
:100120002BB300082BB300082BB300082BB3000837
:100130002BB300082BB300082BB300082BB3000827
:100140002BB300082BB300082BB300082BB3000817
:100150002BB300082BB300082BB300082BB3000807
:100160002BB300082BB300082BB300082BB30008F7
:100170002BB300082BB300082BB3000800000000CD
:100180002BB300082BB30008DFF80CD00BF086FB74
:1001900000480047D70B0008B805002010B50446FA
:1001A00014B101202C4908702B480078002837D062
:1001B00010212A480AF045F978B1082127480AF0A9
:1001C00040F950B1042125480AF03BF928B101213A
:1001D00023480AF036F9012822D164200BF016F8E2
:1001E00000201D49087010211C480AF02AF908B99E
:1001F000012010BD082119480AF023F908B902208E
:10020000F7E7042115480AF01CF908B90320F0E7C4
:10021000012113480AF015F901281BD10420E8E751
:1002200010210E480AF00DF9012813D108210B48BE
:100230000AF007F901280DD1042108480AF001F954
:10024000012807D1012106480AF0FBF810B9012066
:10025000014908700020CCE7040000200010024093
:1002600000000240F0B52DED028B83B04FF6FF7019
:10027000FE490880FE4890ED000B51EC100B0BF08E
:1002800040FA84B2FB4890ED000B51EC100B0BF0E0
:1002900038FA85B20A222146284605F0ACFA4FF416
:1002A0007840F2490880F44890ED000B51EC100BB7
:1002B0000BF027FA84B2F14890ED000B51EC100BD3
:1002C0000BF01FFA85B20A222146284605F093FA60
:1002D0004FF6FF70E5490880E94890ED000B51ECBE
:1002E000100B0BF00EFA84B2E64890ED000B53ECC5
:1002F000102BE54890ED000B51EC100B0BF0DBF8E8
:1003000041EC180B0BF0FDF985B2DD4890ED000BC8
:1003100051EC100B0BF0F5F986B2DB4890ED000BB9
:1003200051EC100B0BF0EDF987B223462A4631460B
:10033000384605F0EAF94FF47840CC490880D048B7
:1003400090ED000B51EC100B0BF0DBF984B2CD48B3
:1003500090ED000B53EC102BCC4890ED000B51ECC2
:10036000100B0BF0A8F841EC180B0BF0CAF985B292
:10037000C34890ED000B51EC100B0BF0C2F986B2A4
:10038000C24890ED000B51EC100B0BF0BAF987B29C
:1003900023462A463146384605F0B7F99FEDBC0B97
:1003A00053EC102BB64890ED000B51EC100B0BF0FA
:1003B00082F841EC180BB04890ED000B53EC102B79
:1003C00051EC180B0BF0B6F918D2B3A010210B4664
:1003D000C822CDE900105A21642005F0A3FB9FED4F
:1003E000B10BB24880ED000B9FEDB10BA34880ED3F
:1003F000000B9FEDAF0BA04880ED000B03B0BDECF0
:10040000028BF0BD10B52DED028BAB48006868BBC8
:100410009A4890ED000B974880ED000B964890EDC0
:10042000000B934880ED000BA04890ED000B53ECBF
:10043000102B924890ED000B51EC100B0BF03BF899
:1004400041EC100B8D4880ED000B984890ED000BAF
:1004500053EC102B884890ED000B51EC100B0BF077
:100460002AF841EC100B844880ED000B924800689C
:1004700001282DD1814890ED000B7E4880ED000BC6
:100480007D4890ED000B7A4880ED000B874890ED99
:10049000000B53EC102B794890ED000B51EC100B36
:1004A0000BF0AAF841EC100B744880ED000B7F486C
:1004B00090ED000B53EC102B6F4890ED000B51ECBE
:1004C000100B0AF0F8FF41EC100B6B4880ED000BAD
:1004D0007948006802282DD1684890ED000B6548E6
:1004E00080ED000B644890ED000B614880ED000B3F
:1004F0006E4890ED000B53EC102B604890ED000B14
:1005000051EC100B0BF078F841EC100B5B4880EDD0
:10051000000B664890ED000B53EC102B564890ED05
:10052000000B51EC100B0BF067F841EC100B52482C
:1005300080ED000B6048006803282DD14F4890EDF6
:10054000000B4C4880ED000B4B4890ED000B4848E9
:1005500080ED000B554890ED000B53EC102B4748F5
:1005600090ED000B51EC100B0AF0A5FF41EC100BC5
:10057000424880ED000B4D4890ED000B53EC102BE2
:100580003D4890ED000B51EC100B0BF035F841ECB1
:10059000100B394880ED000B9FED480B53EC102BEE
:1005A000364890ED000B51EC100B0BF0D7F809D842
:1005B0004148006818B901203F49086002E0022064
:1005C0003D4908609FED370B53EC102B2B4890ED05
:1005D000000B51EC100B0BF0ADF80AD83648006850
:1005E000022803D103203449086002E00020324988
:1005F00008609FED2C0B53EC102B1F4890ED000B67
:1006000051EC100B0BF096F80AD82B480068032821
:1006100003D100202849086002E001202649086033
:100620009FED280B53EC102B134890ED000B51EC71
:10063000100B0BF093F80AD81F480068012803D16B
:1006400002201D49086002E003201B4908600B4896
:1006500090ED000B53EC102B0C4890ED000B51EC7F
:10066000100B0BF067F86AD206482FE08C000020D0
:10067000480000204000002028000020200000202A
:10068000580000206000002068000020500000207A
:10069000000000000000344047414D45204F5645C2
:1006A00052000000000000000000000038000020A0
:1006B0000000000000004440300000200000000066
:1006C00000C07C400000000000B0884090ED000BAE
:1006D00053EC102BFE4890ED000B51EC100B0AF080
:1006E000EAFE41EC180BFB4890ED000B53EC102B8D
:1006F00051EC180B0BF032F821D29FEDF70B53ECB5
:10070000102BF74890ED000B51EC100B0AF074FF22
:1007100041EC180BF34890ED000B53EC102B51EC0F
:10072000180B0BF007F80AD2EF480068012803D134
:100730000220ED49086002E00320EB490860BDECAF
:10074000028B10BD00BFFEE700B587B0E748E8495F
:100750000860002048600021E5488160A821C16050
:100760000021016105F0F3FD20B140F28311E1A009
:10077000FFF7E8FF4FF48050039003A9DC4807F02F
:10078000FAFF20B140F28911DAA0FFF7DBFF002069
:100790000190029001A9D64808F0C7FF20B14FF49C
:1007A000C871D4A0FFF7CEFF07B000BD10B5044656
:1007B0000020D4490860FFF7C7FFCD4805F030FEA0
:1007C00000BFD0480068A042FBD3C94805F0DAFD5D
:1007D00010BD00B58FB04FF02040CB490860CB482A
:1007E0004860062088600021C748C160016110216F
:1007F000416100218161C161016241624FF4805118
:1008000081620021C1624FF4804101630021416394
:10081000816341640F2008900990FF200A900F2007
:100820000B9010200C9011200D9000200E900F20A6
:1008300001900290FF2003900F200490102005905B
:10084000112006900020079001AA08A9AE4805F0E3
:1008500062FB20B140F21B21A6A0FFF773FF0FB08F
:1008600000BD00B587B0AA48AA49086044F29F10AD
:1008700048600021A74881606421C16000210161B6
:1008800005F065FD20B14FF4D1719AA0FFF75AFF32
:10089000A04806F0EAF820B140F2A71195A0FFF7B2
:1008A00051FF60200090322001900020029004202F
:1008B000049000226946974807F069FB20B14FF485
:1008C000D8718CA0FFF73EFF924800F0C3FB07B041
:1008D00000BD00B587B04FF080408F49086044F2FA
:1008E0009F10486000218C48816042F21071C16005
:1008F0000021016105F02BFD20B140F263117DA0C4
:10090000FFF720FF4FF48050039003A9824807F0BF
:1009100032FF20B140F2691176A0FFF713FF0020EB
:100920000190029001A97C4808F0FFFE20B14FF42D
:10093000B87170A0FFF706FF07B000BD00B587B023
:1009400000BF002001907548006840F01000734916
:1009500008600846006800F01000019000BF00BF6A
:1009600000BF002001900846006840F004000860C5
:100970000846006800F00400019000BF00BF00BFFF
:10098000002001900846006840F0200008600846FA
:10099000006800F02000019000BF00BF00BF0020F1
:1009A00001900846006840F0800008600846006832
:1009B00000F08000019000BF00BF00BF0020019048
:1009C0000846006840F0010008600846006800F032
:1009D0000100019000BF00BF00BF00200190084649
:1009E000006840F0020008600846006800F002005D
:1009F000019000BF00BF00BF0020019008460068C2
:100A000040F0080008600846006800F00800019007
:100A100000BF00BF00BF002001900846006840F002
:100A2000400008600846006800F04000019000BFE8
:100A300000BF012209153A4809F00BFD00224FF4CE
:100A40000041384809F005FD1C2002900020039069
:100A50000120049002A9344809F06CFB4FF4806037
:100A600002900120039004900020059002A92C48D8
:100A700009F060FB01200290002003900220049006
:100A800002A92A4809F056FB4FF4004002900120C9
:100A9000039000200490059002A9224809F04AFB27
:100AA00007B000BD10B592B000BF002000901B48F9
:100AB0001030006840F08050184910310860084636
:100AC000006800F08050009000BF00BF00BF2FE022
:100AD0005000002020000020000000000000244002
:100AE00058000020280000203000002000040040B2
:100AF000DC0000202E2E2F5372632F6D61696E2E45
:100B0000630000000C00002054010020040100A03C
:100B10000020004018010020A000002030380240D2
:100B20000014024000040240001002400000024095
:100B300000200090A148006840F480409F49086070
:100B40000846006800F48040009000BF00BF01200C
:100B500006900004079002200C9041050D9104219D
:100B60000E91A8210F91022110910421119106A844
:100B700008F06CFE28B14FF49C71AFF28800FFF7CB
:100B8000E1FD0F20019002200290002003904FF41D
:100B9000A05004904FF480500590052101A809F061
:100BA000C6F828B14FF4A371AFF2B800FFF7CAFD41
:100BB00009F0E4F94FF47A71B0FBF1F420460AF041
:100BC0007DF904200AF07AFA00221146501E0AF03C
:100BD000FFF812B010BD1CB500BF00BF0AF0B9FA93
:100BE000FFF760FFFFF7AAFEFFF773FEFFF739FE7E
:100BF000FFF7AAFDFFF7EDFD714805F011FC00219C
:100C0000704805F0EBFC0122D1036F4809F021FC8C
:100C100001F0C0F94FF478406C49088094E0FFF788
:100C2000F1FBFFF71FFB0020FFF7B8FA01282CD0DB
:100C300002286BD0032802D0042825D14BE0644859
:100C400090ED000B634880ED000B9FED630B53ECC0
:100C5000102B5F4890ED000B51EC100B0AF07EFD5D
:100C60000FD29FED5F0B53EC102B594890ED000B0A
:100C700051EC100B0AF0C0FC41EC100B544880ED15
:100C8000000B0020584908605DE0514890ED000BD2
:100C9000504880ED000B9FED550B53EC102B4C484A
:100CA00090ED000B51EC100B0AF044FD0FD29FEDBC
:100CB0004C0B53EC102B464890ED000B51EC100BF5
:100CC0000AF0F9FB41EC100B414880ED000B0120CC
:100CD0004549086037E09FED470B53EC102B474820
:100CE00090ED000B51EC100B0AF0E5FB41EC100B02
:100CF000424880ED000B42A010210B46C822CDE9EE
:100D000000105A21642004F00DFF1CE09FED320B0F
:100D100053EC102B394890ED000B51EC100B0AF0FE
:100D20001DFD0FD29FED330B53EC102B334890ED8C
:100D3000000B51EC100B0AF05FFC41EC100B2F483C
:100D400080ED000B00BF00BF69E710B586B0044618
:100D50001B4805F017FB4FF080401949086044F22A
:100D60009F104860002116488160C460016105F051
:100D7000EEFA28B140F22F21AFF28820FFF7E2FC13
:100D80004FF48050029002A90D4807F0F4FC28B1FE
:100D900040F23521AFF2A420FFF7D4FC00200090F0
:100DA00001906946064808F0C0FC28B14FF40F7165
:100DB000AFF2C020FFF7C6FC06B010BD00700040C7
:100DC000A000002018010020000402408C00002038
:100DD000500000206800002000000000000000001B
:100DE0000000000000003E4018000020000000004D
:100DF00000207C40000000000000F03F3800002090
:100E0000202020202020202020000000704700BF4C
:100E1000FEE700BFFEE700BFFEE700BFFEE770474A
:100E20007047704710B50AF0D0F90AF05CF910BDB0
:100E300010B52F4806F0C8FD4FF400712D4809F099
:100E40000EFB10BD30B502460020002300241569BA
:100E500005EA0103D56805EA010413B10CB10120CC
:100E600000E0002030BDCA4392B20261704710B565
:100E700021480068401C20490860204806F0A4FD75
:100E800001211F48FFF7DEFF01282CD11D48006813
:100E9000B0F57A7F04DA1B480068401C19490860E5
:100EA00018480068642804D1002016490860FFF73C
:100EB000A9FA154800684CF25031884205D2124810
:100EC0000068401C1049086002E000200E490860DC
:100ED0000E48006842F21071884204D20B48006844
:100EE000401C0A49086001210548FFF7BCFF10BDFE
:100EF000A0000020001402400C000020DC000020B4
:100F000000040040800000207C0000200000002041
:100F100008B500BF00200090B548006840F480404C
:100F2000B34908600846006800F48040009000BFA4
:100F300000BF00BF00200090081F006840F08050F4
:100F4000091F08600846006800F08050009000BF4C
:100F500000BF052009F02AFF002211466FF00B00A8
:100F600009F036FF002211466FF00A0009F030FF49
:100F7000002211466FF0090009F02AFF00221146F5
:100F8000501F09F025FF00221146101F09F020FF15
:100F900000221146901E09F01BFF00221146501E30
:100FA00009F016FF08BD38B504462068B0F1804F3F
:100FB0001AD100BF002000908D48001F006840F04B
:100FC00001008B49091F08600846006800F0010015
:100FD000009000BF00BF002211461C2009F0F8FE5F
:100FE0001C2009F033FF34E08249206888421AD17E
:100FF00000BF002000907E48001F006840F0020003
:101000007B49091F08600846006800F00200009054
:1010100000BF00BF002211461D2009F0D9FE1D208F
:1010200009F014FF15E074492068884211D100BF0F
:10103000002000906E48001F006840F480706C49EA
:10104000091F08600846006800F48070009000BF27
:1010500000BF38BD10B586B0044667492068884295
:101060000DD1401501900220029000200390012034
:1010700004900920059001A9604809F05BF806B0CA
:1010800010BD10B504462068B0F1804F0BD1584810
:10109000001F006820F001005549091F08601C204E
:1010A00009F0E1FE1BE05349206888420BD150480B
:1010B000001F006820F002004D49091F08601D2034
:1010C00009F0D1FE0BE04C492068884207D148481E
:1010D000001F006820F480704549091F086010BD9A
:1010E00000B587B04648006808B107B000BD0120D0
:1010F0004349086000BF002001903D480C3800685B
:1011000040F001003A490C3908600846006800F0D8
:101110000100019000BF00BF8814029002200390DC
:1011200000200490032005900C20069002A933486B
:1011300009F000F84FF68070029002200390002022
:101140000490032005900C20069002A92D4808F079
:10115000F1FF4CF2337002900220039000200490C3
:10116000032005900C20069002A9274808F0E2FF12
:101170004FF480500290022003900020049003203E
:1011800005900C20069002A9204808F0D3FF00BF6C
:10119000ABE710B50446FFF7A3FF10BD10B51C4820
:1011A000006800B110BD01201949086010480C38D2
:1011B000006820F001000E490C39086089140F48BE
:1011C00009F0A1F84FF680710E4809F09CF84CF236
:1011D00033710D4809F097F84FF480510B4809F02E
:1011E00092F800BFDEE710B50446FFF7D7FF10BD49
:1011F0004438024000040040002000400014024037
:101200008400002000100240000C02400018024040
:101210008800002001B5BDF800000090BDF8000076
:10122000F849088008BD01B5BDF800000090BDF880
:101230000000F449891C088008BD08B5F148801CED
:1012400000880090BDF8000008BDEE4A10804FF005
:10125000D842A2F88010704710B504462046FFF728
:10126000D9FF0520FFF7A2FAFFF7E7FF10BDE64818
:101270000089E44908807047E249891C088070476A
:1012800030B5014601F01F04C1F34513CA0AE50257
:1012900005EB43151544A8B230BD00BF0100A0F115
:1012A0000102D0B2FAD1704730B504460D46D64897
:1012B000808849F24131884205D0D348808845F280
:1012C0001031884214D1D0494889FFF7A3FF20127A
:1012D000FFF7A9FFE0B2FFF7A6FFCB498889FFF728
:1012E00099FF2812FFF79FFFE8B2FFF79CFFABE0E2
:1012F000C548808846F6040188421DD1C2488079DD
:10130000012804D1C0480088401E001B84B2BE4999
:101310004889FFF77FFF2012FFF785FFE0B2FFF754
:1013200082FFB9498889FFF775FF2812FFF77BFF15
:10133000E8B2FFF778FF87E0B348808841F6631191
:10134000884247D1B0488079A8B9AF480088401E8C
:10135000001B84B2AC494889FFF75CFF0020FFF70F
:1013600062FF0020FFF75FFF2012FFF75CFFE0B293
:10137000FFF759FF16E0A4494889FFF74BFF2012F9
:10138000FFF751FFE0B2FFF74EFF9F490988491E62
:10139000C1F30F20FFF747FF9B490978491EC8B2E8
:1013A000FFF741FF98498889FFF734FF2812FFF7BC
:1013B0003AFFE8B2FFF737FF93494988491EC1F366
:1013C0000F20FFF730FF90498978491EC8B2FFF718
:1013D0002AFF39E08C48808845F21051884220D19C
:1013E00089494889FFF716FF2012FFF71CFF86493D
:1013F0004989491C88B2FFF70DFFE0B2FFF713FFE0
:1014000081498889FFF706FF2812FFF70CFF7E4904
:101410008989491C88B2FFF7FDFEE8B2FFF703FF98
:1014200012E079488079012804D177480088401E6D
:10143000001B84B2744948892146FFF706FF7249B0
:1014400088892946FFF701FF30BD2DE9F0410546A7
:101450000E4600240027A0466B480088A84203DD02
:1014600069484088B04202DC0020BDE8F081314686
:101470002846FFF719FF6448808849F241318842C5
:1014800011D06148808846F6040188420BD05E483E
:10149000808845F21031884205D05B48808841F64B
:1014A0006311884203D12E20FFF7B4FE0DE05648A9
:1014B000808845F21051884204D14FF43850FFF72C
:1014C000A9FE02E02220FFF7A5FE4F48808849F2DE
:1014D0002031884202D10220FFF7DFFEFFF7ADFE88
:1014E00004464948808841F66311884201D120466C
:1014F000BBE70220FFF7D1FEFFF79FFE04464248FC
:10150000808849F2413188420BD03F48808845F2BB
:101510001031884205D03C48808845F210518842FD
:101520000AD10220FFF7B9FEFFF787FE8046E7B237
:101530004FF6FF7000EA07273348808849F22531CB
:10154000884216D03048808844F23551884210D005
:101550002D488088091F88420BD02B4880884BF289
:101560000551884205D0284880884CF205518842B0
:1015700001D1204679E72448808849F241318842E8
:101580000BD02148808845F21031884205D01E4892
:10159000808845F21051884207D1E012C002B9128A
:1015A00040EA411040EAE8205FE72046FFF768FE86
:1015B0005BE700B51448808849F24131884211D078
:1015C0001148808846F6040188420BD00E48808876
:1015D00045F21031884205D00B48808841F66311EE
:1015E000884203D12920FFF715FE14E006488088C1
:1015F00045F21051884209D14FF42450FFF70AFEFA
:1016000009E000007E00006CA401002040F273118C
:101610000720FFF71AFE00BD00B5FD48808849F29B
:101620004131884211D0FA48808846F60401884248
:101630000BD0F748808845F21031884205D0F44835
:10164000808841F66311884203D12820FFF7E2FD2C
:101650000EE0EF48808845F21051884204D14FF4E3
:101660002050FFF7D7FD03E000210720FFF7EDFD35
:1016700000BDF0B5054600240027E5488079012823
:101680000BD1E348808846F60401884205D0E04843
:10169000808841F66311884208D1DD488079F0B92D
:1016A000DB48808841F66311884218D1082D15D295
:1016B000DFE805F00406080A0C0E101206250DE0FE
:1016C00007250BE0042509E0052507E0012505E0D5
:1016D000002503E0032501E0022500BF00BFCC4840
:1016E000808849F24131884217D0C948808846F63F
:1016F0000401884211D0C648808845F210318842E2
:101700000BD0C348808845F21051884205D0C048AC
:10171000808841F6631188427ED1082D1CD2DFE813
:1017200005F00406090C0F12151800BF14E044F070
:10173000800411E044F040040EE044F0C0040BE0EB
:1017400044F0200408E044F0600405E044F0A00404
:1017500002E044F0E00400BF00BFAD48808845F2DD
:101760001051884202D14FF4585700E03627A8485C
:10177000808845F2103188420DD0A548808845F216
:101780001051884207D0A248808841F663118842F0
:1017900001D044F008049E48808846F6040188423F
:1017A00001D144F0020421463846FFF74EFD984827
:1017B000808841F6631188421DD004F0200068B192
:1017C0009348008892494988884214DA90480688EC
:1017D00040888F490880084646800CE08C48008885
:1017E0008B494988884206DD8948068840888849AF
:1017F0000880084646808648808845F21051884215
:1018000054D183494889FFF705FD0020FFF70BFD00
:101810007F494989491C00E077E088B2FFF7FAFC6C
:101820000020FFF700FD7A494989891C88B2FFF73B
:10183000F1FC77490988491EC1F30F20FFF7F3FC3B
:1018400073494989C91C88B2FFF7E4FC70490978DB
:10185000491EC8B2FFF7E7FC6D498889FFF7DAFC3B
:101860000020FFF7E0FC6A498989491C88B2FFF72C
:10187000D1FC0020FFF7D7FC65498989891C88B213
:10188000FFF7C8FC62494988491EC1F30F20FFF7E2
:10189000CAFC5F498989C91C88B2FFF7BBFC5C4957
:1018A0008978491EC8B2FFF7BEFC55E058494889FF
:1018B000FFF7B0FC0020FFF7B6FC0020FFF7B3FCF9
:1018C00053490988491EC1F30F20FFF7ACFC50496A
:1018D0000978491EC8B2FFF7A6FC4D498889FFF771
:1018E00099FC0020FFF79FFC0020FFF79CFC484973
:1018F0004988491EC1F30F20FFF795FC44498978B8
:10190000491EC8B2FFF78FFC26E0082D1CD2DFE885
:1019100005F004070A0D0F12151844F0300413E007
:1019200044F0100410E044F020040DE000BF0BE090
:1019300044F0380408E044F0280405E044F01804BA
:1019400002E044F0080400BF00BF032744F48054C1
:1019500021463846FFF779FCF0BD30B504460D4608
:1019600029462046FFF7A0FCFFF781FC29480088A4
:101970002949088030BD70B504460D4616462448F6
:10198000808849F24131884205D02148808845F25B
:101990001031884214D11E494889FFF73BFC2012C0
:1019A000FFF741FCE0B2FFF73EFC19498889FFF7D9
:1019B00031FC2812FFF737FCE8B2FFF734FC93E064
:1019C0001348808845F21051884227D11049488930
:1019D000FFF720FC2012FFF726FC0D494989491C1E
:1019E00088B2FFF717FCE0B2FFF71DFC08498889B1
:1019F000FFF710FC2812FFF716FC05498989491CDE
:101A000088B2FFF707FCE8B2FFF70DFC6CE00000BE
:101A1000A40100208C0000208000006CFE4880881B
:101A200041F66311884228D1FB48807920B9FA48F1
:101A30000088401E001B84B2F7494889FFF7EAFB83
:101A40002012FFF7F0FBE0B2FFF7EDFB2012FFF7EB
:101A5000EAFBE0B2FFF7E7FBEF498889FFF7DAFB23
:101A60002812FFF7E0FBE8B2FFF7DDFB2812FFF7D3
:101A7000DAFBE8B2FFF7D7FB36E0E748808846F6A6
:101A8000040188421DD1E4488079012804D1E2484C
:101A90000088401E001B84B2DF494889FFF7BAFB6B
:101AA0002012FFF7C0FBE0B2FFF7BDFBDA498889DF
:101AB000FFF7B0FB2812FFF7B6FBE8B2FFF7B3FB66
:101AC00012E0D5488079012804D1D3480088401E0F
:101AD000001B84B2D04948892146FFF7B6FBCE49A6
:101AE00088892946FFF7B1FBCB480089CB4908809C
:101AF0004FF0D840A0F8806070BD70B52DED048B1C
:101B00000446BE20FFF786FB0520FFF78CFB20462E
:101B100009F0EAFD41EC190B9FEDC10B53EC102BC2
:101B200009F070FD41EC180B09F0EBFD85B2284679
:101B3000FFF779FB0120FFF776FBFF20FFF773FB30
:101B40000020FFF770FB0020FFF76DFBBDEC048B5E
:101B500070BD10B50446002C66D1AF498871F020E5
:101B600008804FF4A07048800846808849F24131CF
:101B700088420BD0A848808846F60401884205D0E8
:101B8000A548808845F2103188421AD12C20A249FC
:101B900008812A2048812B2088810846808846F6C3
:101BA0000401884205D09C48808845F21031884263
:101BB00006D14FF4A070984908804FF4F070488027
:101BC000A1E09548808845F21051884210D14FF429
:101BD0003050914908814FF4285048814FF42C50DF
:101BE00088814FF4F07008804FF4487048808AE094
:101BF0008948808841F6631188420DD12C2086499E
:101C000008812B2048812A2088814FF4F0700880B9
:101C10004FF44870488076E022207F4908812020D8
:101C20004881212088816EE001207B4988714FF432
:101C3000A0700880F02048800846808849F2413131
:101C4000884205D07448808845F21031884207D117
:101C50002C20714908812A2048812B2088813FE06F
:101C60006D48808846F60401884207D12C206A49D5
:101C700008812B2048812A20888131E066488088AD
:101C800045F21051884210D14FF43050624908811A
:101C90004FF4285048814FF42C5088814FF44870FD
:101CA00008804FF4F07048801AE05B48808841F665
:101CB000631188420DD12C20574908812A20488180
:101CC0002B2088814FF4487008804FF4F0704880D2
:101CD00006E0222050490881212048812020888167
:101CE0004D48808846F60401884205D04A488088DD
:101CF00045F21031884206D14FF4F0704649088011
:101D00004FF4A07048800020FFF7B3FC10BD2DE910
:101D1000F04F86B004460D469046994604EB080005
:101D2000401E86B205EB0900401E87B23A48808803
:101D300049F24131884215D03748808845F2103148
:101D400088420FD03448808846F60401884209D082
:101D500031488079012826D12F48808841F66311C7
:101D6000884220D12C494889FFF754FA2012FFF706
:101D70005AFAE0B2FFF757FA3012FFF754FAF0B20E
:101D8000FFF751FA24498889FFF744FA2812FFF730
:101D90004AFAE8B2FFF747FA3812FFF744FAF8B206
:101DA000FFF741FAC1E01C48808841F66311884280
:101DB0003DD119480088A0EB0800001B84B205EB58
:101DC0000900401E1FFA80F913494889FFF722FADB
:101DD0002012FFF728FAE0B2FFF725FA04EB08011A
:101DE000491EC1F30F20FFF71EFA04EB0801491E3C
:101DF000C8B2FFF718FA08498889FFF70BFA2812CA
:101E0000FFF711FAE8B2FFF70EFA4FEA2920FFF7C1
:101E10000AFA09F0FF0007E0A40100207E00006C30
:101E20006666666666660440FFF7FDF97DE0FE487B
:101E3000808845F21051884244D1FB494889FFF718
:101E4000E9F92012FFF7EFF9F7494989491C88B2EF
:101E5000FFF7E0F9E0B2FFF7E6F9F3494989891C99
:101E600088B2FFF7D7F93012FFF7DDF9EE4949895B
:101E7000C91C88B2FFF7CEF9F0B2FFF7D4F9EA49EE
:101E80008889FFF7C7F92812FFF7CDF9E649898954
:101E9000491C88B2FFF7BEF9E8B2FFF7C4F9E2497E
:101EA0008989891C88B2FFF7B5F93812FFF7BBF9A9
:101EB000DD498989C91C88B2FFF7ACF9F8B2FFF790
:101EC000B2F932E0D848807901280ED1AA46BB4643
:101ED000D5480088801B401E80B20190D2480088FF
:101EE000001B401E80B2009003E0A246B34601955D
:101EF00000975020059051200490522003905320C9
:101F0000029051460598FFF7A0F959460498FFF74B
:101F10009CF901990398FFF798F900990298FFF747
:101F200094F929462046FFF7BFF906B0BDE8F08FC7
:101F300070B504460026BC48058840884543BA4829
:101F4000808846F60401884216D1B7488079012876
:101F500012D10020B44988712A2048812B20888121
:101F600000210846FFF7A0F90120AF4988712B2016
:101F700048812A20888103E000210846FFF794F970
:101F8000FFF775F9002602E0A8480480761CAE42EF
:101F9000FAD370BD08B500200090322009F036F960
:101FA00001210020FFF751F9322009F02FF900201C
:101FB000FFF752F99C49888008468088FF280ADB91
:101FC000084680884FF6FF71884204D09648808882
:101FD000B0F5134F7ED1D320FFF71CF9FFF72DF991
:101FE00091498880FFF729F98F498880FFF725F903
:101FF0008D498880084680884FF6FF7101EA0020ED
:1020000089498880FFF719F98749898808438649F3
:1020100088800846808849F2413188425AD0BF20E2
:10202000FFF7F8F8FFF709F97F498880FFF705F90E
:102030007D498880FFF701F97B498880FFF7FDF82B
:1020400079498880084680884FF6FF7101EA0020B0
:1020500075498880FFF7F1F8734989880843724908
:1020600088800846808846F6040188427AD0D420C9
:10207000FFF7D0F8FFF7E1F86B498880FFF7DDF84C
:1020800069498880FFF7D9F86749888008468088C1
:102090004FF6FF7101EA002063498880FFF7CDF811
:1020A000614989880843604988800846808845F2EC
:1020B0001031884256D04FF45A40FFF7ABF8FFF783
:1020C000BCF8594988804FF45B40FFF7A3F8FFF74D
:1020D000B4F800E046E054498880084680884FF60E
:1020E000FF7101EA0020504988804FF45C40FFF7FF
:1020F00091F8FFF7A2F84C49898808434A4988803B
:1021000008468088B0F5004F02D145F21050888013
:102110004548808845F21051884223D0A120FFF71E
:1021200079F8FFF78AF840498880FFF786F83E493A
:102130008880084680884FF6FF7101EA00203A49FE
:102140008880FFF77AF838498988084336498880BB
:102150000846808845F26171884203D141F66310D8
:10216000314988803048808849F2413188427DD1A8
:10217000CF20FFF74FF80020FFF755F8C120FFF7F9
:1021800052F83020FFF74FF8ED20FFF743F86420B6
:10219000FFF749F80320FFF746F81220FFF743F84E
:1021A0008120FFF740F8E820FFF734F88520FFF79B
:1021B0003AF81020FFF737F87A20FFF734F8CB20F1
:1021C000FFF728F83920FFF72EF82C20FFF72BF81F
:1021D0000020FFF728F83420FFF725F80220FFF74A
:1021E00022F8F720FFF716F82020FFF71CF8EA2066
:1021F000FFF710F80020FFF716F80020FFF713F89C
:10220000C020FFF707F81B20FFF70DF8C120FFF7EC
:1022100001F80120FFF707F8C520FEF7FBFF30208B
:10222000FFF701F8302003E0A40100208000006CDB
:10223000FEF7F9FFC720FEF7EDFFB720FEF7F3FF2B
:102240003620FEF7E7FF4820FEF7EDFF3A20FEF7C5
:10225000E1FF5520FEF7E7FFB120FEF7DBFF00208E
:10226000FEF7E1FF1A20FEF7DEFF00E09DE0B6205A
:10227000FEF7D0FF0A20FEF7D6FFA220FEF7D3FF1D
:10228000F220FEF7C7FF0020FEF7CDFF2620FEF765
:10229000C1FF0120FEF7C7FFE020FEF7BBFF0F20C4
:1022A000FEF7C1FF2A20FEF7BEFF2820FEF7BBFF86
:1022B0000820FEF7B8FF0E20FEF7B5FF0820FEF756
:1022C000B2FF5420FEF7AFFFA920FEF7ACFF43207A
:1022D000FEF7A9FF0A20FEF7A6FF0F20FEF7A3FFD7
:1022E0000020FEF7A0FF0020FEF79DFF0020FEF774
:1022F0009AFF0020FEF797FFE120FEF78BFF0020FA
:10230000FEF791FF1520FEF78EFF1720FEF78BFFDB
:102310000720FEF788FF1120FEF785FF0620FEF755
:1023200082FF2B20FEF77FFF5620FEF77CFF3C202C
:10233000FEF779FF0520FEF776FF1020FEF773FF0A
:102340000F20FEF770FF3F20FEF76DFF3F20FEF7E6
:102350006AFF0F20FEF767FF2B20FEF75BFF0020D0
:10236000FEF761FF0020FEF75EFF0120FEF75BFF36
:102370003F20FEF758FF2A20FEF74CFF0020FEF713
:1023800052FF0020FEF74FFF0020FEF74CFFEF202A
:10239000FEF749FF1120FEF73DFF782008F036FFD9
:1023A0002920FEF737FF03F01DB9FE48808846F666
:1023B000040188427ED11120FEF72CFF142008F082
:1023C00025FFD020FEF726FF0720FEF72CFF422036
:1023D000FEF729FF1D20FEF726FFD120FEF71AFF8A
:1023E0000020FEF720FF1A20FEF71DFF0920FEF750
:1023F0001AFFD220FEF70EFF0120FEF714FF222065
:10240000FEF711FFC020FEF705FF1020FEF70BFFBF
:102410003B20FEF708FF0020FEF705FF0220FEF735
:1024200002FF1120FEF7FFFEC520FEF7F3FE03209A
:10243000FEF7F9FEC820FEF7EDFE0020FEF7F3FEE2
:102440002520FEF7F0FE2120FEF7EDFE0520FEF729
:10245000EAFE0020FEF7E7FE0A20FEF7E4FE652014
:10246000FEF7E1FE2520FEF7DEFE7720FEF7DBFE1D
:102470005020FEF7D8FE0F20FEF7D5FE0020FEF715
:10248000D2FEF820FEF7C6FE0120FEF7CCFEFE20AD
:10249000FEF7C0FE0020FEF7C6FE0220FEF7C3FED8
:1024A0002020FEF7B7FE3620FEF7B4FE0820FEF728
:1024B000BAFE00E02AE03A20FEF7ACFE5520FEF717
:1024C000B2FE2B20FEF7A6FE0020FEF7ACFE002099
:1024D000FEF7A9FE0120FEF7A6FE3F20FEF7A3FEB1
:1024E0002A20FEF797FE0020FEF79DFE0020FEF753
:1024F0009AFE0120FEF797FEDF20FEF794FE78207B
:1025000008F084FE2920FEF785FE4CE7A548808868
:1025100045F21031884240F07C87ED20FEF77AFECC
:102520000120FEF780FEFE20FEF77DFEEE20FEF786
:1025300071FEDE20FEF777FE2120FEF774FEF1200B
:10254000FEF768FE0120FEF76EFEDF20FEF762FE5A
:102550001020FEF768FEC420FEF75CFE8F20FEF719
:1025600062FEC620FEF756FE0020FEF75CFEE2206B
:10257000FEF759FEE220FEF756FEE220FEF753FE7C
:10258000BF20FEF747FEAA20FEF74DFEB020FEF763
:1025900041FE0D20FEF747FE0020FEF744FE0D2011
:1025A000FEF741FE0020FEF73EFE1120FEF73BFE47
:1025B0000020FEF738FE1920FEF735FE0020FEF75A
:1025C00032FE2120FEF72FFE0020FEF72CFE2D20EC
:1025D000FEF729FE0020FEF726FE3D20FEF723FE33
:1025E0000020FEF720FE5D20FEF71DFE0020FEF716
:1025F0001AFE5D20FEF717FE0020FEF714FEB12044
:10260000FEF708FE8020FEF70EFE0020FEF70BFE10
:102610008B20FEF708FE0020FEF705FE9620FEF751
:1026200002FE0020FEF7FFFDB220FEF7F3FD0020C2
:10263000FEF7F9FD0020FEF7F6FD0220FEF7F3FDA0
:102640000020FEF7F0FD0320FEF7EDFD0020FEF771
:10265000EAFDB320FEF7DEFD0020FEF7E4FD0020DA
:10266000FEF7E1FD0020FEF7DEFD0020FEF7DBFDBA
:102670000020FEF7D8FD0020FEF7D5FD0020FEF774
:10268000D2FD0020FEF7CFFD0020FEF7CCFD00209C
:10269000FEF7C9FD0020FEF7C6FD0020FEF7C3FDD2
:1026A0000020FEF7C0FD0020FEF7BDFD0020FEF774
:1026B000BAFD0020FEF7B7FD0020FEF7B4FD0020B4
:1026C000FEF7B1FD0020FEF7AEFD0020FEF7ABFDEA
:1026D0000020FEF7A8FD0020FEF7A5FD0020FEF774
:1026E000A2FD0020FEF79FFDB420FEF793FD8B2096
:1026F000FEF799FD0020FEF796FD9620FEF793FD6C
:102700000020FEF790FDA120FEF78DFD0020FEF7D2
:102710008AFDB520FEF77EFD0220FEF784FD002035
:10272000FEF781FD0320FEF77EFD0020FEF77BFD16
:102730000420FEF778FD0020FEF775FDB620FEF7B9
:1027400069FD0020FEF76FFD0020FEF76CFDB7204D
:10275000FEF760FD0020FEF766FD0020FEF763FD3A
:102760003F20FEF760FD0020FEF75DFD5E20FEF7D6
:102770005AFD0020FEF757FD6420FEF754FD0020AF
:10278000FEF751FD8C20FEF74EFD0020FEF74BFDBD
:10279000AC20FEF748FD0020FEF745FDDC20FEF7EB
:1027A00042FD01E0A40100200020FEF73CFD702066
:1027B000FEF739FD0020FEF736FD9020FEF733FDD1
:1027C0000020FEF730FDEB20FEF72DFD0020FEF788
:1027D0002AFDDC20FEF727FD0020FEF724FDB820AF
:1027E000FEF718FD0020FEF71EFD0020FEF71BFD82
:1027F0000020FEF718FD0020FEF715FD0020FEF773
:1028000012FD0020FEF70FFD0020FEF70CFD00205A
:10281000FEF709FDBA20FEF7FDFC2420FEF703FDBC
:102820000020FEF700FD0020FEF7FDFC0020FEF773
:10283000FAFCC120FEF7EEFC2020FEF7F4FC00209D
:10284000FEF7F1FC5420FEF7EEFC0020FEF7EBFC57
:10285000FF20FEF7E8FC0020FEF7E5FCC220FEF7B3
:10286000D9FC0A20FEF7DFFC0020FEF7DCFC042088
:10287000FEF7D9FC0020FEF7D6FCC320FEF7CAFC09
:102880003C20FEF7D0FC0020FEF7CDFC3A20FEF7FE
:10289000CAFC0020FEF7C7FC3920FEF7C4FC00206C
:1028A000FEF7C1FC3720FEF7BEFC0020FEF7BBFCA4
:1028B0003C20FEF7B8FC0020FEF7B5FC3620FEF702
:1028C000B2FC0020FEF7AFFC3220FEF7ACFC00208B
:1028D000FEF7A9FC2F20FEF7A6FC0020FEF7A3FCC4
:1028E0002C20FEF7A0FC0020FEF79DFC2920FEF71F
:1028F0009AFC0020FEF797FC2620FEF794FC0020AF
:10290000FEF791FC2420FEF78EFC0020FEF78BFCE6
:102910002420FEF788FC0020FEF785FC2320FEF72C
:1029200082FC0020FEF77FFC3C20FEF77CFC0020B0
:10293000FEF779FC3620FEF776FC0020FEF773FCEC
:102940003220FEF770FC0020FEF76DFC2F20FEF712
:102950006AFC0020FEF767FC2C20FEF764FC0020D8
:10296000FEF761FC2920FEF75EFC0020FEF75BFC11
:102970002620FEF758FC0020FEF755FC2420FEF729
:1029800052FC0020FEF74FFC2420FEF74CFC0020F8
:10299000FEF749FC2320FEF746FC0020FEF743FC2F
:1029A000C420FEF737FC6220FEF73DFC0020FEF756
:1029B0003AFC0520FEF737FC0020FEF734FC8420AB
:1029C000FEF731FC0020FEF72EFCF020FEF72BFC7A
:1029D0000020FEF728FC1820FEF725FC0020FEF75B
:1029E00022FCA420FEF71FFC0020FEF71CFC182090
:1029F000FEF719FC0020FEF716FC5020FEF713FC32
:102A00000020FEF710FC0C20FEF70DFC0020FEF766
:102A10000AFC1720FEF707FC0020FEF704FC9520B7
:102A2000FEF701FC0020FEF7FEFBF320FEF7FBFBA8
:102A30000020FEF7F8FBE620FEF7F5FB0020FEF78E
:102A4000F2FBC520FEF7E6FB3220FEF7ECFB002090
:102A5000FEF7E9FB4420FEF7E6FB0020FEF7E3FB70
:102A60006520FEF7E0FB0020FEF7DDFB7620FEF799
:102A7000DAFB0020FEF7D7FB8820FEF7D4FB00200E
:102A8000FEF7D1FBC620FEF7C5FB2020FEF7CBFBEF
:102A90000020FEF7C8FB1720FEF7C5FB0020FEF75D
:102AA000C2FB0120FEF7BFFB0020FEF7BCFBC720E6
:102AB000FEF7B0FB0020FEF7B6FB0020FEF7B3FBED
:102AC0000020FEF7B0FB0020FEF7ADFBC820FEF7AC
:102AD000A1FB0020FEF7A7FB0020FEF7A4FB0020CF
:102AE000FEF7A1FB0020FEF79EFBC920FEF792FB3C
:102AF0000020FEF798FB0020FEF795FB0020FEF774
:102B000092FB0020FEF78FFB0020FEF78CFB0020DD
:102B1000FEF789FB0020FEF786FB0020FEF783FB13
:102B20000020FEF780FB0020FEF77DFB0020FEF773
:102B30007AFB0020FEF777FB0020FEF774FB0020F5
:102B4000FEF771FB0020FEF76EFB0020FEF76BFB2B
:102B5000E020FEF75FFB1620FEF765FB0020FEF786
:102B600062FB1C20FEF75FFB0020FEF75CFB2120D0
:102B7000FEF759FB0020FEF756FB3620FEF753FB0D
:102B80000020FEF750FB4620FEF74DFB0020FEF72D
:102B90004AFB5220FEF747FB0020FEF744FB64206F
:102BA000FEF741FB0020FEF73EFB7A20FEF73BFBE1
:102BB0000020FEF738FB8B20FEF735FB0020FEF7E8
:102BC00032FB9920FEF72FFB0020FEF72CFBA820FC
:102BD000FEF729FB0020FEF726FBB920FEF723FBBA
:102BE0000020FEF720FBC420FEF71DFB0020FEF7AF
:102BF0001AFBCA20FEF717FB0020FEF714FBD220B9
:102C0000FEF711FB0020FEF70EFBD920FEF70BFBB1
:102C10000020FEF708FBE020FEF705FB0020FEF792
:102C200002FBF320FEF7FFFA0020FEF7FCFAE1209A
:102C3000FEF7F0FA1620FEF7F6FA0020FEF7F3FA98
:102C40001C20FEF7F0FA0020FEF7EDFA2220FEF736
:102C5000EAFA0020FEF7E7FA3620FEF7E4FA002051
:102C6000FEF7E1FA4520FEF7DEFA0020FEF7DBFA78
:102C70005220FEF7D8FA0020FEF7D5FA6420FEF7BE
:102C8000D2FA0020FEF7CFFA7A20FEF7CCFA002025
:102C9000FEF7C9FA8B20FEF7C6FA0020FEF7C3FA4A
:102CA0009920FEF7C0FA0020FEF7BDFAA820FEF733
:102CB000BAFA0020FEF7B7FAB920FEF7B4FA0020FE
:102CC000FEF7B1FAC420FEF7AEFA0020FEF7ABFA29
:102CD000CA20FEF7A8FA0020FEF7A5FAD220FEF7D8
:102CE000A2FA0020FEF79FFAD820FEF79CFA0020F7
:102CF000FEF799FAE020FEF796FA0020FEF793FA25
:102D0000F320FEF790FA0020FEF78DFAE220FEF79E
:102D100081FA0520FEF787FA0020FEF784FA0B20DF
:102D2000FEF781FA0020FEF77EFA1B20FEF77BFA01
:102D30000020FEF778FA3420FEF775FA0020FEF73F
:102D400072FA4420FEF76FFA0020FEF76CFA4F206B
:102D5000FEF769FA0020FEF766FA6120FEF763FAD3
:102D60000020FEF760FA7920FEF75DFA0020FEF7FA
:102D70005AFA8820FEF757FA0020FEF754FA9720F7
:102D8000FEF751FA0020FEF74EFAA620FEF74BFAA6
:102D90000020FEF748FAB720FEF745FA0020FEF7BC
:102DA00042FAC220FEF73FFA0020FEF73CFAC720A5
:102DB000FEF739FA0020FEF736FAD120FEF733FA93
:102DC0000020FEF730FAD620FEF72DFA0020FEF79D
:102DD0002AFADD20FEF727FA0020FEF724FAF32076
:102DE000FEF721FA0020FEF71EFAE320FEF712FAA2
:102DF0000520FEF718FA0020FEF715FA0A20FEF764
:102E000012FA0020FEF70FFA1C20FEF70CFA002041
:102E1000FEF709FA3320FEF706FA0020FEF703FA60
:102E20004420FEF700FA0020FEF7FDF95020FEF7DF
:102E3000FAF90020FEF7F7F96220FEF7F4F9002016
:102E4000FEF7F1F97820FEF7EEF90020FEF7EBF936
:102E50008820FEF7E8F90020FEF7E5F99720FEF755
:102E6000E2F90020FEF7DFF9A620FEF7DCF90020EA
:102E7000FEF7D9F9B720FEF7D6F90020FEF7D3F90F
:102E8000C220FEF7D0F90020FEF7CDF9C720FEF7EB
:102E9000CAF90020FEF7C7F9D120FEF7C4F90020D7
:102EA000FEF7C1F9D520FEF7BEF90020FEF7BBF909
:102EB000DD20FEF7B8F90020FEF7B5F9F320FEF7A4
:102EC000B2F90020FEF7AFF9E420FEF7A3F90120E4
:102ED000FEF7A9F90020FEF7A6F90120FEF7A3F9F5
:102EE0000020FEF7A0F90220FEF79DF90020FEF772
:102EF0009AF92A20FEF797F90020FEF794F93C2072
:102F0000FEF791F90020FEF78EF94B20FEF78BF9C2
:102F10000020FEF788F95D20FEF785F90020FEF716
:102F200082F97420FEF77FF90020FEF77CF98420F7
:102F3000FEF779F90020FEF776F99320FEF773F992
:102F40000020FEF770F9A220FEF76DF90020FEF7D1
:102F50006AF9B320FEF767F90020FEF764F9BE2096
:102F6000FEF761F90020FEF75EF9C420FEF75BF979
:102F70000020FEF758F9CD20FEF755F90020FEF7A6
:102F800052F9D320FEF74FF90020FEF74CF9DD206F
:102F9000FEF749F90020FEF746F9F320FEF743F962
:102FA0000020FEF740F9E520FEF734F90020FEF797
:102FB0003AF90020FEF737F90020FEF734F9002037
:102FC000FEF731F90220FEF72EF90020FEF72BF96B
:102FD0002920FEF728F90020FEF725F93C20FEF70E
:102FE00022F90020FEF71FF94B20FEF71CF9002004
:102FF000FEF719F95D20FEF716F90020FEF713F928
:103000007420FEF710F90020FEF70DF98420FEF77A
:103010000AF90020FEF707F99320FEF704F90020D3
:10302000FEF701F9A220FEF7FEF80020FEF7FBF8FC
:10303000B320FEF7F8F80020FEF7F5F8BE20FEF703
:10304000F2F80020FEF7EFF8C420FEF7ECF80020BD
:10305000FEF7E9F8CD20FEF7E6F80020FEF7E3F8EA
:10306000D320FEF7E0F80020FEF7DDF8DC20FEF7C5
:10307000DAF80020FEF7D7F8F320FEF7D4F80020A6
:10308000FEF7D1F8E620FEF7C5F81120FEF7CBF8E1
:103090000020FEF7C8F83420FEF7C5F80020FEF740
:1030A000C2F85620FEF7BFF80020FEF7BCF87620E5
:1030B000FEF7B9F80020FEF7B6F87720FEF7B3F870
:1030C0000020FEF7B0F86620FEF7ADF80020FEF70E
:1030D000AAF88820FEF7A7F80020FEF7A4F89920A8
:1030E000FEF7A1F80020FEF79EF8BB20FEF79BF844
:1030F0000020FEF798F89920FEF795F80020FEF7DB
:1031000092F86620FEF78FF80020FEF78CF8552025
:10311000FEF789F80020FEF786F85520FEF783F8C1
:103120000020FEF780F84520FEF77DF80020FEF72E
:103130007AF84320FEF777F80020FEF774F8442071
:10314000FEF771F80020FEF76EF8E720FEF762F850
:103150003220FEF768F80020FEF765F85520FEF7EC
:1031600062F80020FEF75FF87620FEF75CF800209A
:10317000FEF759F86620FEF756F80020FEF753F8E0
:103180006720FEF750F80020FEF74DF86720FEF7A5
:103190004AF80020FEF747F88720FEF744F80020A1
:1031A000FEF741F89920FEF73EF80020FEF73BF8C5
:1031B000BB20FEF738F80020FEF735F89920FEF71F
:1031C00032F80020FEF72FF87720FEF72CF80020C9
:1031D000FEF729F84420FEF726F80020FEF723F832
:1031E0005620FEF720F80020FEF71DF82320FEF7FA
:1031F0001AF80020FEF717F83320FEF714F8002025
:10320000FEF711F84520FEF70EF80020FEF70BF848
:10321000E820FDF7FFFF0020FEF705F80020FEF78D
:1032200002F89920FDF7FFFF0020FDF7FCFF872043
:10323000FDF7F9FF0020FDF7F6FF8820FDF7F3FF0B
:103240000020FDF7F0FF7720FDF7EDFF0020FDF7F0
:10325000EAFF6620FDF7E7FF0020FDF7E4FF882086
:10326000FDF7E1FF0020FDF7DEFFAA20FDF7DBFF01
:103270000020FDF7D8FFBB20FDF7D5FF0020FDF7AC
:10328000D2FF9920FDF7CFFF0020FDF7CCFF66208D
:10329000FDF7C9FF0020FDF7C6FF5520FDF7C3FF6E
:1032A0000020FDF7C0FF5520FDF7BDFF0020FDF712
:1032B000BAFF4420FDF7B7FF0020FDF7B4FF44201C
:1032C000FDF7B1FF0020FDF7AEFF5520FDF7ABFF86
:1032D0000020FDF7A8FFE920FDF79CFFAA20FDF7DD
:1032E000A2FF0020FDF79FFF0020FDF79CFF0020BC
:1032F000FDF799FF0020FDF78DFFAA20FDF793FF52
:10330000CF20FDF787FF0020FDF78DFF0020FDF7A0
:103310008AFF0020FDF787FF0020FDF784FF0020D3
:10332000FDF781FF0020FDF77EFF0020FDF77BFF0A
:103330000020FDF778FF0020FDF775FF0020FDF766
:1033400072FF0020FDF76FFF0020FDF76CFF0020EB
:10335000FDF769FF0020FDF766FF0020FDF763FF22
:103360000020FDF760FF0020FDF75DFFF020FDF776
:1033700051FF0020FDF757FF5020FDF754FF0020BC
:10338000FDF751FF0020FDF74EFF0020FDF74BFF3A
:10339000F320FDF73FFF0020FDF745FFF920FDF783
:1033A00039FF0620FDF73FFF1020FDF73CFF2920E5
:1033B000FDF739FF0020FDF736FF3A20FDF72AFF21
:1033C0005520FDF730FF1120FDF724FF642007F0A2
:1033D0001DFF2920FDF71EFF3520FDF71BFF0020F4
:1033E000FDF721FF5120FDF715FFFF20FDF71BFF23
:1033F0005320FDF70FFF2C20FDF715FF5520FDF79B
:1034000009FF8220FDF70FFF2C20FDF703FF02F0DC
:10341000E9B8FE48808845F2105188427ED1552196
:103420004FF47040FDF711FFAA214FF20100FDF7A4
:103430000CFF52214FF20200FDF707FF08214FF267
:103440000300FDF702FF01214FF20400FDF7FDFE2E
:103450000D214FF43040FDF7F8FE0D214BF2010035
:10346000FDF7F3FE0D214BF20200FDF7EEFE3421D5
:103470004FF43640FDF7E9FE34214BF20160FDF7D1
:10348000E4FE34214BF20260FDF7DFFE0D214FF424
:103490003140FDF7DAFE0D214BF20110FDF7D5FEAC
:1034A0000D214BF20210FDF7D0FE34214FF43740CE
:1034B000FDF7CBFE34214BF20170FDF7C6FE34213F
:1034C0004BF20270FDF7C1FE00214FF43240FDF7D0
:1034D000BCFE00214BF20120FDF7B7FE00214BF2AC
:1034E0000220FDF7B2FE24214FF43840FDF7ADFE77
:1034F00024214BF60100FDF7A8FE24214BF6020023
:10350000FDF7A3FE01214FF43F40FDF79EFE0F2182
:103510004FF43340FDF799FE0F2100E0FEE34BF23C
:103520000130FDF792FE0F214BF20230FDF78DFEC8
:1035300034214FF43940FDF788FE34214BF6011059
:10354000FDF783FE34214BF60210FDF77EFE0821C5
:103550004FF43540FDF779FE08214BF20150FDF79D
:1035600074FE08214BF20250FDF76FFE03214FF469
:103570004240FDF76AFE24214FF43A40FDF765FE14
:1035800024214BF60120FDF760FE24214BF602209A
:10359000FDF75BFE00214FF43C40FDF756FE78211D
:1035A0004BF60140FDF751FE00214BF60240FDF7BE
:1035B0004CFE00214FF43D40FDF747FE78214BF6CD
:1035C0000150FDF742FE00214BF60250FDF73DFE93
:1035D00000214FF43E40FDF738FE64214BF60160B8
:1035E000FDF733FE00214FF45140FDF72EFE33214D
:1035F0004DF20110FDF729FE00214DF20210FDF7FA
:1036000024FE34214DF20310FDF71FFE00214DF280
:103610000410FDF71AFE3A214DF20510FDF715FED4
:1036200000214DF20610FDF710FE4A214DF2071061
:10363000FDF70BFE00214DF20810FDF706FE5C21A0
:103640004DF20910FDF701FE00214DF20A10FDF7C1
:10365000FCFD81214DF20B10FDF7F7FD00214DF22D
:103660000C10FDF7F2FDA6214DF20D10FDF7EDFD5A
:1036700000214DF20E10FDF7E8FDE5214DF20F108F
:10368000FDF7E3FD01214DF21010FDF7DEFD1321E2
:103690004DF21110FDF7D9FD01214DF21210FDF789
:1036A000D4FD54214DF21310FDF7CFFD01214DF251
:1036B0001410FDF7CAFD82214DF21510FDF7C5FD6E
:1036C00001214DF21610FDF7C0FDCA214DF2171071
:1036D000FDF7BBFD02214DF21810FDF7B6FD0021EC
:1036E0004DF21910FDF7B1FD02214DF21A10FDF750
:1036F000ACFD01214DF21B10FDF7A7FD02214DF29B
:103700001C10FDF7A2FD34214DF21D10FDF79DFDAB
:1037100002214DF21E10FDF798FD67214DF21F109A
:10372000FDF793FD02214DF22010FDF78EFD84215F
:103730004DF22110FDF789FD02214DF22210FDF717
:1037400084FDA4214DF22310FDF77FFD02214DF2EF
:103750002410FDF77AFDB7214DF22510FDF775FD18
:1037600002214DF22610FDF770FDCF214DF22710FA
:10377000FDF76BFD02214DF22810FDF766FDDE21FD
:103780004DF22910FDF761FD02214DF22A10FDF7DF
:103790005CFDF2214DF22B10FDF757FD02214DF299
:1037A0002C10FDF752FDFE214DF22D10FDF74DFDC1
:1037B00003214DF22E10FDF748FD10214DF22F1080
:1037C000FDF743FD03214DF23010FDF73EFD33219F
:1037D0004DF23110FDF739FD03214DF23210FDF7A6
:1037E00034FD6D214DF23310FDF72FFD00214FF414
:1037F0005240FDF72AFD33214DF20120FDF725FD52
:1038000000214DF20220FDF720FD01E0A40100207F
:1038100034214DF20320FDF718FD00214DF2042064
:10382000FDF713FD3A214DF20520FDF70EFD0021B5
:103830004DF20620FDF709FD4A214DF20720FDF764
:1038400004FD00214DF20820FDF7FFFC5C214DF244
:103850000920FDF7FAFC00214DF20A20FDF7F5FCE6
:1038600081214DF20B20FDF7F0FC00214DF20C20E0
:10387000FDF7EBFCA6214DF20D20FDF7E6FC002143
:103880004DF20E20FDF7E1FCE5214DF20F20FDF792
:10389000DCFC01214DF21020FDF7D7FC13214DF285
:1038A0001120FDF7D2FC01214DF21220FDF7CDFCD5
:1038B00054214DF21320FDF7C8FC01214DF21420D4
:1038C000FDF7C3FC82214DF21520FDF7BEFC01215E
:1038D0004DF21620FDF7B9FCCA214DF21720FDF775
:1038E000B4FC02214DF21820FDF7AFFC00214DF28F
:1038F0001920FDF7AAFC02214DF21A20FDF7A5FCC4
:1039000001214DF21B20FDF7A0FC02214DF21C20ED
:10391000FDF79BFC34214DF21D20FDF796FC0221A2
:103920004DF21E20FDF791FC67214DF21F20FDF79F
:103930008CFC02214DF22020FDF787FC84214DF202
:103940002120FDF782FC02214DF22220FDF77DFCB3
:10395000A4214DF22320FDF778FC02214DF2242012
:10396000FDF773FCB7214DF22520FDF76EFC022117
:103970004DF22620FDF769FCCF214DF22720FDF7FF
:1039800064FC02214DF22820FDF75FFCDE214DF2A0
:103990002920FDF75AFC02214DF22A20FDF755FCA3
:1039A000F2214DF22B20FDF750FC02214DF22C208C
:1039B000FDF74BFCFE214DF22D20FDF746FC0321C7
:1039C0004DF22E20FDF741FC10214DF22F20FDF786
:1039D0003CFC03214DF23020FDF737FC33214DF242
:1039E0003120FDF732FC03214DF23220FDF72DFC92
:1039F0006D214DF23320FDF728FC00214FF4534098
:103A0000FDF723FC33214DF20130FDF71EFC0021B0
:103A10004DF20230FDF719FC34214DF20330FDF771
:103A200014FC00214DF20430FDF70FFC3A214DF259
:103A30000530FDF70AFC00214DF20630FDF705FCCC
:103A40004A214DF20730FDF700FC00214DF208300D
:103A5000FDF7FBFB5C214DF20930FDF7F6FB002181
:103A60004DF20A30FDF7F1FB81214DF20B30FDF7ED
:103A7000ECFB00214DF20C30FDF7E7FBA6214DF2E7
:103A80000D30FDF7E2FB00214DF20E30FDF7DDFBBE
:103A9000E5214DF20F30FDF7D8FB01214DF210303A
:103AA000FDF7D3FB13214DF21130FDF7CEFB0121C1
:103AB0004DF21230FDF7C9FB54214DF21330FDF7E2
:103AC000C4FB01214DF21430FDF7BFFB82214DF202
:103AD0001530FDF7BAFB01214DF21630FDF7B5FBAD
:103AE000CA214DF21730FDF7B0FB02214DF218301C
:103AF000FDF7ABFB00214DF21930FDF7A6FB0221CB
:103B00004DF21A30FDF7A1FB01214DF21B30FDF7FC
:103B10009CFB02214DF21C30FDF797FB34214DF246
:103B20001D30FDF792FB02214DF21E30FDF78DFB9B
:103B300067214DF21F30FDF788FB02214DF2203046
:103B4000FDF783FB84214DF22130FDF77EFB02213E
:103B50004DF22230FDF779FBA4214DF22330FDF721
:103B600074FB02214DF22430FDF76FFBB7214DF2BB
:103B70002530FDF76AFB02214DF22630FDF765FB8B
:103B8000CF214DF22730FDF760FB02214DF22830A6
:103B9000FDF75BFBDE214DF22930FDF756FB0221DC
:103BA0004DF22A30FDF751FBF2214DF22B30FDF79B
:103BB0004CFB02214DF22C30FDF747FBFE214DF26C
:103BC0002D30FDF742FB03214DF22E30FDF73DFB7A
:103BD00010214DF22F30FDF738FB03214DF230302C
:103BE000FDF733FB33214DF23130FDF72EFB03217E
:103BF0004DF23230FDF729FB6D214DF23330FDF7E8
:103C000024FB00214FF45440FDF71FFB33214DF2FC
:103C10000140FDF71AFB00214DF20240FDF715FBB4
:103C200034214DF20340FDF710FB00214DF204401A
:103C3000FDF70BFB3A214DF20540FDF706FB002195
:103C40004DF20640FDF701FB4A214DF20740FDF71A
:103C5000FCFA00214DF20840FDF7F7FA5C214DF225
:103C60000940FDF7F2FA00214DF20A40FDF7EDFAA6
:103C700081214DF20B40FDF7E8FA00214DF20C4096
:103C8000FDF7E3FAA6214DF20D40FDF7DEFA002123
:103C90004DF20E40FDF7D9FAE5214DF20F40FDF748
:103CA000D4FA01214DF21040FDF7CFFA13214DF265
:103CB0001140FDF7CAFA01214DF21240FDF7C5FA95
:103CC00054214DF21340FDF7C0FA01214DF214408A
:103CD000FDF7BBFA82214DF21540FDF7B6FA01213E
:103CE0004DF21640FDF7B1FACA214DF21740FDF72B
:103CF000ACFA02214DF21840FDF7A7FA00214DF26F
:103D00001940FDF7A2FA02214DF21A40FDF79DFA83
:103D100001214DF21B40FDF798FA00E004E3022177
:103D20004DF21C40FDF791FA34214DF21D40FDF794
:103D30008CFA02214DF21E40FDF787FA67214DF201
:103D40001F40FDF782FA02214DF22040FDF77DFA77
:103D500084214DF22140FDF778FA02214DF22240F4
:103D6000FDF773FAA4214DF22340FDF76EFA02210C
:103D70004DF22440FDF769FAB7214DF22540FDF7D9
:103D800064FA02214DF22640FDF75FFACF214DF291
:103D90002740FDF75AFA02214DF22840FDF755FA67
:103DA000DE214DF22940FDF750FA02214DF22A4062
:103DB000FDF74BFAF2214DF22B40FDF746FA0221B6
:103DC0004DF22C40FDF741FAFE214DF22D40FDF75A
:103DD0003CFA03214DF22E40FDF737FA10214DF247
:103DE0002F40FDF732FA03214DF23040FDF72DFA56
:103DF00033214DF23140FDF728FA03214DF23240D4
:103E0000FDF723FA6D214DF23340FDF71EFA002134
:103E10004FF45540FDF719FA33214DF20150FDF7EB
:103E200014FA00214DF20250FDF70FFA34214DF241
:103E30000350FDF70AFA00214DF20450FDF705FA90
:103E40003A214DF20550FDF700FA00214DF20650DF
:103E5000FDF7FBF94A214DF20750FDF7F6F9002175
:103E60004DF20850FDF7F1F95C214DF20950FDF7D4
:103E7000ECF900214DF20A50FDF7E7F981214DF2EE
:103E80000B50FDF7E2F900214DF20C50FDF7DDF982
:103E9000A6214DF20D50FDF7D8F900214DF20E503C
:103EA000FDF7D3F9E5214DF20F50FDF7CEF90121D1
:103EB0004DF21050FDF7C9F913214DF21150FDF7E5
:103EC000C4F901214DF21250FDF7BFF954214DF212
:103ED0001350FDF7BAF901214DF21450FDF7B5F971
:103EE00082214DF21550FDF7B0F901214DF2165027
:103EF000FDF7ABF9CA214DF21750FDF7A6F90221E3
:103F00004DF21850FDF7A1F900214DF21950FDF7BF
:103F10009CF902214DF21A50FDF797F901214DF25B
:103F20001B50FDF792F902214DF21C50FDF78DF95F
:103F300034214DF21D50FDF788F902214DF21E503B
:103F4000FDF783F967214DF21F50FDF77EF902213D
:103F50004DF22050FDF779F984214DF22150FDF703
:103F600074F902214DF22250FDF76FF9A4214DF2B0
:103F70002350FDF76AF902214DF22450FDF765F94F
:103F8000B7214DF22550FDF760F902214DF2265080
:103F9000FDF75BF9CF214DF22750FDF756F90221CD
:103FA0004DF22850FDF751F9DE214DF22950FDF771
:103FB0004CF902214DF22A50FDF747F9F2214DF25A
:103FC0002B50FDF742F902214DF22C50FDF73DF93F
:103FD000FE214DF22D50FDF738F903214DF22E5000
:103FE000FDF733F910214DF22F50FDF72EF9032183
:103FF0004DF23050FDF729F933214DF23150FDF7E4
:1040000024F903214DF23250FDF71FF96D214DF2D5
:104010003350FDF71AF900214FF45640FDF715F91A
:1040200033214DF20160FDF710F900214DF20260DD
:10403000FDF70BF934214DF20360FDF706F900217D
:104040004DF20460FDF701F93A214DF20560FDF7EC
:10405000FCF800214DF20660FDF7F7F84A214DF219
:104060000760FDF7F2F800214DF20860FDF7EDF86A
:104070005C214DF20960FDF7E8F800214DF20A607D
:10408000FDF7E3F881214DF20B60FDF7DEF800212A
:104090004DF20C60FDF7D9F8A6214DF20D60FDF749
:1040A000D4F800214DF20E60FDF7CFF8E5214DF276
:1040B0000F60FDF7CAF801214DF21060FDF7C5F859
:1040C00013214DF21160FDF7C0F801214DF212608D
:1040D000FDF7BBF854214DF21360FDF7B6F801214E
:1040E0004DF21460FDF7B1F882214DF21560FDF735
:1040F000ACF801214DF21660FDF7A7F8CA214DF288
:104100001760FDF7A2F802214DF21860FDF79DF847
:1041100000214DF21960FDF798F802214DF21A6066
:10412000FDF793F801214DF21B60FDF78EF8022197
:104130004DF21C60FDF789F834214DF21D60FDF74A
:1041400084F802214DF21E60FDF77FF867214DF2E1
:104150001F60FDF77AF802214DF22060FDF775F837
:1041600084214DF22160FDF770F802214DF22260AA
:10417000FDF76BF8A4214DF22360FDF766F80221EC
:104180004DF22460FDF761F8B7214DF22560FDF78F
:104190005CF802214DF22660FDF757F8CF214DF271
:1041A0002760FDF752F802214DF22860FDF74DF827
:1041B000DE214DF22960FDF748F802214DF22A6018
:1041C000FDF743F8F2214DF22B60FDF73EF8022196
:1041D0004DF22C60FDF739F8FE214DF22D60FDF710
:1041E00034F803214DF22E60FDF72FF810214DF227
:1041F0002F60FDF72AF803214DF23060FDF725F816
:1042000033214DF23160FDF720F803214DF2326089
:10421000FDF71BF86D214DF23360FDF716F85521BF
:104220004FF47040FDF711F8AA214FF20100FDF79D
:104230000CF852214FF20200FDF707F808214FF267
:104240000300FDF702F800214FF20400FCF7FDFF28
:10425000CC214FF43140FCF7F8FF00214BF2011064
:10426000FCF7F3FF05214FF43640FCF7EEFF702119
:104270004FF43740FCF7E9FF70214BF20170FCF777
:10428000E4FF01214FF43840FCF7DFFF03214BF638
:104290000100FCF7DAFF03214BF60200FCF7D5FF23
:1042A00003214BF60300FCF7D0FF02214FF43C4002
:1042B000FCF7CBFF00214BF60140FCF7C6FF0021C5
:1042C0004BF60240FCF7C1FFD0214FF44940FCF708
:1042D000BCFF02214CF60110FCF7B7FF50214CF651
:1042E0000210FCF7B2FF50214CF60310FCF7ADFFB3
:1042F00050214CF60410FCF7A8FF00214FF4545055
:10430000FCF7A3FF55214FF46850FCF79EFF4FF4D4
:104310008850FCF77FFF7820FCF748FA4FF42450D0
:10432000FCF778FF01F05EB9FE48808849F225313C
:1043300088427DD147F6F001E520FCF786FF4FF477
:1043400080710120FCF781FF4FF4E0610220FCF74F
:104350007CFF41F230010320FCF777FF00210420AD
:10436000FCF773FF40F202210820FCF76EFF0021EA
:104370000920FCF76AFF00210A20FCF766FF0021F4
:104380000C20FCF762FF00210D20FCF75EFF0021EE
:104390000F20FCF75AFF00211020FCF756FF0721E1
:1043A0001120FCF752FF00211220FCF74EFF0021E4
:1043B0001320FCF74AFF00210720FCF746FF41F2DB
:1043C00090611020FCF741FF40F227211120FCF7FB
:1043D0003CFF9D211220FCF738FF4FF4C8511320F9
:1043E000FCF733FF25212920FCF72FFF0D212B207F
:1043F000FCF72BFF07213020FCF727FF40F20331A9
:104400003120FCF722FF03213220FCF71EFF40F28F
:1044100006213520FCF719FF08213620FCF715FF8F
:1044200040F206413720FCF710FF4FF4417100E0E5
:1044300058E03820FCF709FF07213920FCF705FF79
:1044400040F202613C20FCF700FF08213D20FCF710
:10445000FCFE00215020FCF7F8FEEF215120FCF774
:10446000F4FE00215220FCF7F0FE40F23F115320F1
:10447000FCF7EBFE4FF427416020FCF7E6FE01213C
:104480006120FCF7E2FE00216A20FCF7DEFE00213D
:104490008020FCF7DAFE00218120FCF7D6FE002107
:1044A0008220FCF7D2FE00218320FCF7CEFE002103
:1044B0008420FCF7CAFE00218520FCF7C6FE1021EF
:1044C0009020FCF7C2FE4FF4C0619220FCF7BDFEC5
:1044D00040F233110720FCF7B8FE22210020FCF740
:1044E000B4FE1FE78F48808849F2283188427DD189
:1044F00041F28F01EC20FCF7A8FE41F23421EF20BD
:10450000FCF7A3FE4FF480710120FCF79EFE4FF4F0
:10451000E0610220FCF799FE41F230010320FCF734
:1045200094FE00210420FCF790FE40F202210820B6
:10453000FCF78BFE00210920FCF787FE00210A20F2
:10454000FCF783FE01210C20FCF77FFE00210D20EB
:10455000FCF77BFE00210F20FCF777FE00211020E6
:10456000FCF773FE07211120FCF76FFE00211220DB
:10457000FCF76BFE00211320FCF767FE01210720EA
:10458000FCF763FE322006F041FE41F2904110201C
:10459000FCF75BFE40F227211120FCF756FE32208B
:1045A00006F034FE8A211220FCF74FFE322006F07E
:1045B0002DFE4FF4D0511320FCF747FE0621292091
:1045C000FCF743FE0D212B20FCF73FFE322006F0C6
:1045D0001DFE00212020FCF738FE00212120FCF7E1
:1045E00034FE322006F012FE002100E075E030209B
:1045F000FCF72BFE40F204613120FCF726FE40F26E
:1046000005313220FCF721FE00213520FCF71DFE8C
:1046100040F609413620FCF718FE4FF401713720AF
:10462000FCF713FE40F201313820FCF70EFE40F299
:1046300007713920FCF709FE00213C20FCF705FE3C
:1046400040F60A213D20FCF700FE322006F0DEFD98
:1046500000215020FCF7F9FDEF215120FCF7F5FD7A
:1046600000215220FCF7F1FD40F23F115320FCF7EE
:10467000ECFD4FF427416020FCF7E7FD01216120AC
:10468000FCF7E3FD00216A20FCF7DFFD002180201C
:10469000FCF7DBFD00218120FCF7D7FD0021822003
:1046A000FCF7D3FD00218320FCF7CFFD00218420FF
:1046B000FCF7CBFD00218520FCF7C7FD10219020E1
:1046C000FCF7C3FD4FF4C0619220FCF7BEFD40F241
:1046D00033110720FCF7B9FD24E61248808849F21F
:1046E000203188427ED100210846FCF7AEFD4FF410
:1046F00080710120FCF7A9FD4FF4E0610220FCF776
:10470000A4FD41F230010320FCF79FFD00210420AD
:10471000FCF79BFD40F202210820FCF796FD0021EA
:10472000092001E0A4010020FCF78FFD00210A20F0
:10473000FCF78BFD01210C20FCF787FD00210D20EB
:10474000FCF783FD00210F20FCF77FFD322006F0EF
:104750005DFD40F201110720FCF777FD322006F0E5
:1047600055FD4FF486511020FCF76FFD07211120F5
:10477000FCF76BFD4FF488711220FCF766FD4FF4D7
:1047800030611320FCF761FD00212920FCF75DFD5D
:1047900044F210012B20FCF758FD00215020FCF7BB
:1047A00054FDEF215120FCF750FD00215220FCF771
:1047B0004CFD40F23F115320FCF747FD4FF41C51D4
:1047C0006020FCF742FD01216120FCF73EFD002145
:1047D0006A20FCF73AFD00218020FCF736FD00211D
:1047E000812000E030E0FCF730FD00218220FCF762
:1047F0002CFD00218320FCF728FD00218420FCF7FC
:1048000024FD00218520FCF720FD10219020FCF7DD
:104810001CFD00219220FCF718FD01219320FCF7DC
:1048200014FD4FF488719520FCF70FFD00219720AF
:10483000FCF70BFD00219820FCF707FD40F27311F7
:104840000720FCF702FD6DE5FE48808849F2313112
:1048500088427DD141F21401E720FCF7F6FC4FF4C9
:1048600080710120FCF7F1FC4FF400710220FCF78D
:10487000ECFC41F238010320FCF7E7FC40F2022196
:104880000820FCF7E2FC00210920FCF7DEFC0021F7
:104890000A20FCF7DAFC00210C20FCF7D6FC0021F2
:1048A0000D20FCF7D2FC00210F20FCF7CEFC0021EC
:1048B0001020FCF7CAFC07211120FCF7C6FC0021E0
:1048C0001220FCF7C2FC00211320FCF7BEFCC8201C
:1048D00006F09CFC41F290611020FCF7B6FC40F21F
:1048E00027211120FCF7B1FC322006F08FFC0C21AF
:1048F0001220FCF7AAFC322006F088FC4FF400617D
:104900001320FCF7A2FC11212920FCF79EFC0B21AF
:104910002B20FCF79AFC322006F078FC00212020A6
:10492000FCF793FC40F23F112120FCF78EFC0021A4
:104930003020FCF78AFC4FF483713120FCF785FCB2
:1049400000213220FCF781FC4FF40171352000E09A
:1049500064E0FCF77AFC41F20A613620FCF775FC52
:1049600040F207713720FCF770FC4FF48371382058
:10497000FCF76BFC40F207713920FCF766FC40F253
:1049800002413C20FCF761FC40F60F413D20FCF762
:104990005CFC00215020FCF758FCEF215120FCF773
:1049A00054FC00215220FCF750FC40F23F115320F0
:1049B000FCF74BFC4FF41C516020FCF746FC012136
:1049C0006120FCF742FC00216A20FCF73EFC00213C
:1049D0008020FCF73AFC00218120FCF736FC002106
:1049E0008220FCF732FC00218320FCF72EFC002102
:1049F0008420FCF72AFC00218520FCF726FC1021EE
:104A00009020FCF722FC4FF4C0619220FCF71DFCC3
:104A100040F233110720FCF718FC83E489488088B2
:104A200045F2084188427DD14FF480710120FCF7A6
:104A30000CFC4FF4E0610220FCF707FC41F230016E
:104A40000320FCF702FC00210420FCF7FEFB40F2EF
:104A500007210820FCF7F9FB00210920FCF7F5FBF2
:104A600000210A20FCF7F1FB00210C20FCF7EDFBF4
:104A700000210D20FCF7E9FB00210F20FCF7E5FBEE
:104A8000142006F0C3FB41F2B0611020FCF7DDFBFF
:104A900001211120FCF7D9FB01211720FCF7D5FBE0
:104AA0004FF49C711220FCF7D0FB4FF400611320EF
:104AB000FCF7CBFB09212920FCF7C7FB09212A20A1
:104AC000FCF7C3FB0021A420FCF7BFFB0021502012
:104AD000FCF7BBFBEF215120FCF7B7FB0021522074
:104AE000FCF7B3FB40F23F115320FCF7AEFB4FF451
:104AF0001C516020FCF7A9FB01216120FCF7A5FBFC
:104B000000216A20FCF7A1FB00218020FCF79DFB1F
:104B100000218120FCF799FB00218220FCF795FB06
:104B2000002100E024E08320FCF78FFB002184209B
:104B3000FCF78BFB00218520FCF787FB13219020DD
:104B4000FCF783FB00219220FCF77FFB03219320DD
:104B5000FCF77BFB4FF488719520FCF776FB40F265
:104B600073110720FCF771FB322006F04FFBB8E40D
:104B70003448808841F2055188427DD100210720C8
:104B8000FCF763FB322006F041FB4FF48E711220DC
:104B9000FCF75BFB0121A420FCF757FB0F21082049
:104BA000FCF753FB08210A20FCF74FFB08210D20DE
:104BB000FCF74BFB40F207713020FCF746FB072166
:104BC0003120FCF742FB40F203613220FCF73DFB51
:104BD0004FF4E0613320FCF738FB40F2022134202F
:104BE000FCF733FB02213520FCF72FFB41F60F7158
:104BF0003620FCF72AFB40F207713720FCF725FB33
:104C000000213820FCF721FB00213920FCF71DFB97
:104C100040F207713A20FCF718FB00213B20FCF71B
:104C200014FB07213C20FCF710FB00213D20FCF782
:104C30000CFB322006F0EAFA01210720FCF705FB05
:104C4000012101E0A40100201720FCF7FEFA322028
:104C500006F0DCFA4FF4BD511020FCF7F6FA40F2F2
:104C600017211120FCF7F1FA4FF48F711220FCF795
:104C7000ECFA4FF4706100E098E01320FCF7E5FADD
:104C800000212A20FCF7E1FA0A212920FCF7DDFAAD
:104C90004FF49F711220FCF7D8FA00215020FCF746
:104CA000D4FAEF215120FCF7D0FA00215220FCF772
:104CB000CCFA40F23F115320FCF7C7FA4FF41C51D5
:104CC0006020FCF7C2FA01216120FCF7BEFA002146
:104CD0006A20FCF7BAFA00218020FCF7B6FA00211E
:104CE0008120FCF7B2FA00218220FCF7AEFA002105
:104CF0008320FCF7AAFA00218420FCF7A6FA002101
:104D00008520FCF7A2FA13219020FCF79EFA4FF4BD
:104D100040719220FCF799FA05219320FCF795FA4F
:104D200000219520FCF791FA00219720FCF78DFADD
:104D300000219820FCF789FA4FF480710120FCF7DC
:104D400084FA4FF4E0610220FCF77FFA41F2380167
:104D50000320FCF77AFA00210420FCF776FA002100
:104D60000C20FCF772FA00210F20FCF76EFA0021EC
:104D70002020FCF76AFA00212120FCF766FA2121A5
:104D80000720FCF762FA142006F040FA61210720A0
:104D9000FCF75BFA142006F039FA40F27311072091
:104DA000FCF753FA142006F031FA95E4FE488088A7
:104DB0004BF2055188427CD100210846FCF745FAA8
:104DC00000210846FCF741FA00210846FCF73DFAAD
:104DD00000210846FCF739FA0121A420FCF735FA36
:104DE000142006F013FA4FF41C516020FCF72DFA42
:104DF00040F202210820FCF728FA4FF40571302018
:104E0000FCF723FA43F215713120FCF71EFA40F249
:104E100004613220FCF719FA40F616613320FCF7E2
:104E200014FA42F211213420FCF70FFA4FF4A85182
:104E30003520FCF70AFA48F207513620FCF705FA4C
:104E400041F207413720FCF700FA41F203413820D4
:104E5000FCF7FBF920213920FCF7F7F91A21902003
:104E6000FCF7F3F900211020FCF7EFF907211120DE
:104E7000FCF7EBF900211220FCF7E7F900211320E1
:104E8000FCF7E3F9142006F0C1F94FF4E6611020B5
:104E9000FCF7DBF940F237111120FCF7D6F91420AA
:104EA00006F0B4F94FF4DC711220FCF7CEF91420AF
:104EB00000E085E006F0AAF94FF470611320FCF7DA
:104EC000C4F980212A20FCF7C0F948212920FCF7E9
:104ED000BCF9142006F09AF94FF480710120FCF718
:104EE000B4F94FF4E0610220FCF7AFF941F2380168
:104EF0000320FCF7AAF940F202210820FCF7A5F9EB
:104F000000210A20FCF7A1F900210C20FCF79DF9F3
:104F100000210D20FCF799F930210E20FCF795F9BE
:104F200000215020FCF791F9EF215120FCF78DF979
:104F300000215220FCF789F940F23F115320FCF781
:104F400084F94FF41C516020FCF77FF901216120A6
:104F5000FCF77BF900216A20FCF777F911219020FA
:104F6000FCF773F94FF4C0619220FCF76EF940F240
:104F700002419320FCF769F902219420FCF765F9BE
:104F8000142006F043F901210720FCF75EF91420F4
:104F900006F03CF961210720FCF757F940F2731144
:104FA0000720FCF752F900212020FCF74EF90021E0
:104FB0002120FCF74AF922210020FCF746F911E3F1
:104FC000794880884CF2055188427CD100210846FE
:104FD000FCF73BF900210846FCF737F9142006F0EE
:104FE00015F900210846FCF730F900210846FCF7C6
:104FF0002CF900210846FCF728F900210846FCF7A7
:1050000024F90121A420FCF720F9142006F0FEF871
:105010004FF41C516020FCF718F940F606010820F7
:10502000FCF713F940F203713020FCF70EF901216F
:105030003120FCF70AF904213220FCF706F94FF47D
:1050400081713320FCF701F94FF440713420FCF7F3
:10505000FCF840F203113520FCF7F7F81F21362049
:10506000FCF7F3F840F203713720FCF7EEF801216A
:105070003820FCF7EAF804213920FCF7E6F815217E
:105080009020FCF7E2F84FF482611020FCF7DDF885
:1050900040F247211120FCF7D8F84FF4DE711220BE
:1050A000FCF7D3F84FF460611320FCF7CEF87820BA
:1050B00006F0ACF84FF480710120FCF7C6F84FF40D
:1050C0000071022000E052E0FCF7BFF841F230012D
:1050D0000320FCF7BAF808210A20FCF7B6F80021F3
:1050E0000C20FCF7B2F820210E20FCF7AEF80021CE
:1050F0000F20FCF7AAF800212020FCF7A6F80021D9
:105100002120FCF7A2F83D212A20FCF79EF814206C
:1051100006F07CF82D212920FCF797F8002150207B
:10512000FCF793F84DF2EF015120FCF78EF80021C7
:105130005220FCF78AF840F23F115320FCF785F823
:1051400000216120FCF781F800216A20FCF77DF83E
:105150004FF440719220FCF778F805219320FCF77A
:1051600074F84FF480710720FCF76FF83AE20E48AC
:10517000808844F2315188427ED101210020FCF721
:1051800064F80A2006F042F841F228611020FCF78A
:105190005CF80E211220FCF758F840F63921132054
:1051A000FCF753F80A2001E0A401002006F02EF8D5
:1051B00040211120FCF749F850211520FCF745F853
:1051C0000A2006F023F81E211220FCF73EF80A20E0
:1051D00006F01CF84FF4B1511020FCF736F842F6F7
:1051E00039211320FCF731F80A2006F00FF84FF4AC
:1051F00080710120FCF729F84FF440710220FCF780
:1052000024F841F238010320FCF71FF840F2022194
:105210000820FCF71AF808210A20FCF716F80021EC
:105220003020FCF712F840F202413120FCF70DF873
:105230004FF483713220FCF708F840F20351332019
:10524000FCF703F84FF482713420FBF7FEFF40F2C5
:1052500001313520FBF7F9FF40F207713620FBF7EB
:10526000F4FF40F205313720FBF7EFFF4FF40271F6
:105270003820FBF7EAFF00E03EE040F60B713920F2
:10528000FBF7E3FF02214120FBF7DFFF4FF41C5146
:105290006020FBF7DAFF01216120FBF7D6FF4FF416
:1052A00004719020FBF7D1FF4FF485719220FBF73A
:1052B000CCFF04219320FBF7C8FF4FF48071A0209E
:1052C000FBF7C3FF01210720FBF7BFFF21210720C8
:1052D000FBF7BBFF23210720FBF7B7FF3321072094
:1052E000FBF7B3FF40F233110720FBF7AEFF0021BD
:1052F000A020FBF7AAFF75E1FA48808844F23551F7
:1053000088427CD130211520FBF79FFF10219A2085
:10531000FBF79BFF20211120FBF797FF43F2284169
:105320001020FBF792FF02211220FBF78EFF41F2C3
:1053300038011320FBF789FF282005F067FF1221B1
:105340000846FBF782FF282005F060FF43F220416A
:105350001020FBF77AFF43F238011320FBF775FFAB
:10536000462005F053FF00213020FBF76EFF40F28E
:1053700002413120FBF769FF40F207313220FBF791
:1053800064FF4FF441713320FBF75FFF04213420A9
:10539000FBF75BFF40F201413520FBF756FF40F27F
:1053A00007713620FBF751FF40F205313720FBF73C
:1053B0004CFF4FF4C2613820FBF747FF4FF4C26146
:1053C0003920FBF742FF4FF480710120FBF73DFFCE
:1053D0004FF440710220FBF738FF41F23001032007
:1053E000FBF733FF40F608010820FBF72EFF0821EA
:1053F0000A20FBF72AFF4FF41C51602000E033E045
:10540000FBF723FF01216120FBF71FFF4FF49F7182
:105410009020FBF71AFF4FF480719220FBF715FFE5
:105420004FF480719320FBF710FF4FF44051A02000
:10543000FBF70BFF1021A320FBF707FF012107203B
:10544000FBF703FF21210720FBF7FFFE23210720A5
:10545000FBF7FBFE33210720FBF7F7FE40F2331189
:105460000720FBF7F2FEBDE09E48808841F66311FD
:105470008842F8D1E220FBF7CDFE1D20FBF7D3FEDA
:105480000220FBF7D0FE0420FBF7CDFE6420FBF7E3
:105490008DF9E020FBF7BEFE0120FBF7C4FE0A20D9
:1054A00005F0B4FEE020FBF7B5FE0320FBF7BBFEE2
:1054B0000C2005F0ABFE0120FBF7ACFE0A2005F046
:1054C000A5FEE620FBF7A6FE2F20FBF7ACFEFF2093
:1054D000FBF7A9FEFF20FBF7A6FEB020FBF79AFE24
:1054E0002020FBF7A0FE0020FBF79DFE0320FBF72A
:1054F0009AFE40F21F30FBF796FE0120FBF793FE69
:1055000040F2DF10FBF78FFE0020FBF78CFEB4208B
:10551000FBF780FE0420FBF786FE40F21F40FBF7FE
:1055200082FE0020FBF77FFE2E20FBF77CFE002092
:10553000FBF779FE0020FBF776FE0020FBF773FEF9
:105540000020FBF770FEB620FBF764FE0220FBF79D
:105550006AFE4FF40370FBF766FE0020FBF763FE64
:105560001720FBF760FE1520FBF75DFE0020FBF720
:105570005AFE0020FBF757FEF020FBF74BFE0320FE
:10558000FBF751FE2920FBF745FED020FBF742FE3A
:105590000020FBF748FEBE20FBF73CFE0520FBF792
:1055A00042FEFE20FBF73FFE0120FBF73CFE002001
:1055B000FBF739FE0020FBF736FE0020FBF733FE39
:1055C000B820FBF727FE0320FBF72DFE0120FBF799
:1055D0002AFEBA20FBF71EFE0120FBF724FE642002
:1055E000FCF78BFA0020FCF7B4FA4FF6FF70FCF7DB
:1055F0009FFC08BD2DE9FC4F05460E461746984610
:10560000DDF82C90002001903648808846F6040191
:10561000884229D133488079012825D1AB463546C7
:1056200030480088C01B401E86B247462D4800887F
:10563000A0EB0B00401E1FFA80F80020294988715A
:105640002A2048812B20888143463A463146284605
:10565000CDF80090FFF7CEFF0120224988712B2062
:1056600048812A2088811DE0781B401C80B201906F
:10567000344615E021462846FBF716FEFBF7F7FDFA
:105680004FF0000A07E04FF0D840A0F880900AF1F0
:1056900001001FFA80FA01988245F4DB601C84B295
:1056A0004445E7DDBDE8FC8F2DE9F84F07460D4680
:1056B00090469946DDF828B0A8EB0700401C1FFA79
:1056C00080FAA9EB0500401C80B20090002417E08E
:1056D000281981B23846FBF7E7FDFBF7C8FD002625
:1056E0000AE00000A401002004FB0A603BF810005F
:1056F000F7490880701C86B25645F5DB601C84B201
:1057000000988442E4DBBDE8F88F2DE9FF4F84B0B8
:1057100081468A460020039002900698A0EB090576
:105720000798A0EB0A06CDF80490CDF800A0002D54
:1057300001DD012705E00DB9002702E04FF0FF373A
:105740006D42002E02DD4FF0010806E016B94FF061
:10575000000802E04FF0FF387642B54201DD2C46EA
:1057600000E034464FF0000B21E0009A91B2019A1C
:1057700090B2FCF7F2F80398284403900298304462
:1057800002900398A04205DD0398001B0390019846
:10579000384401900298A04205DD0298001B029057
:1057A0000098404400900BF101001FFA80FB601C40
:1057B0008345DADD08B0BDE8F08FF0B504460D464C
:1057C00016461F462B46324629462046FFF79DFFC8
:1057D0003B46224629462046FFF797FF3B46324686
:1057E00039462046FFF791FF3B4632462946304670
:1057F000FFF78BFFF0BD2DE9F04306460F469046BC
:10580000002445460320A0EB48093CE07A1B91B2F6
:10581000321990B2FCF7A1F83A1B91B2721990B20A
:10582000FCF79BF83A1991B2721990B2FCF795F80F
:105830007A1991B2321990B2FCF78FF87A1991B2B5
:10584000321B90B2FCF789F83A1991B2721B90B2F0
:10585000FCF783F87A1B91B2321B90B2FCF77DF80B
:105860003A1B91B2721B90B2FCF777F8641CB9F145
:10587000000F03DAA000801D814404E0601B80005B
:105880000A3081446D1EAC42C0DDBDE8F0832DE9D5
:10589000F84F80460E4617461C46B3462046E3178F
:1058A00004EB5373DB1021464FEAE47C04EB5C7C91
:1058B0004FEAEC0CA4EBCC0CBCF1000F02D04FF083
:1058C000010C01E04FF0000C6344224604EBD27C53
:1058D0004FEA6C0C03FB0CF3DBB20093A7F1200042
:1058E000C7B2002556E00C2C07D107EB47007949D9
:1058F00001EB800010F8059013E0102C05D17648DC
:1059000000EB071010F805900BE0182C07D107EBFF
:10591000C700724901EB800010F8059001E0BDE876
:10592000F88F4FF0000A2FE009F0800030B16C488A
:10593000028831464046FCF71EF807E00A9828B96D
:105940006848028831464046FCF715F84FEA49603E
:105950004FEA1069701C86B263484088B04200DC90
:10596000DDE7A6EB0B00A0420AD15E4608F101007C
:105970001FFA80F85C480088404500DCCFE706E06D
:105980000AF1010000F0FF0ABAF1080FCCDB00BFFA
:10599000681CC5B200988542A5DB00BFBFE710B503
:1059A0000246012000E050430B00A1F10104E1B2E6
:1059B000F9D110BD2DE9FF4F81B0074691461E4633
:1059C0000E9D4FF0000A002439E0301B401EC1B28A
:1059D0000A20FFF7E4FFB9FBF0F00A21B0FBF1F277
:1059E00001FB1208BAF1000F16D1701EA04213DDA0
:1059F000B8F1000F0ED10020AB4605EBDB7149106A
:105A000001FB0471009088B22B4620220299FFF717
:105A10003EFF12E04FF0010A0020AB4605EBDB71C0
:105A2000491001FB0471009088B208F13001CAB23C
:105A30002B460299FFF72BFF00BF601CC4B2B44293
:105A4000C3DB05B0BDE8F08F2DE9FF4F82B00646FD
:105A500092461F46DDE90F480020019000255CE0DA
:105A6000781B401EC1B20A20FFF799FFBAFBF0F085
:105A70000A21B0FBF1F201FB12090198B0BB781EBC
:105A8000A84236DDB9F1000F31D108F0800078B1BD
:105A900008F00100A34604EBDB71491001FB05612E
:105AA000009088B2234630220399FFF7F0FE0EE003
:105AB00008F00100A34604EBDB71491001FB05610E
:105AC000009088B2234620220399FFF7E0FE22E0EF
:105AD0008000006CDEB8000852BD000842C3000818
